{
  "_format": "hh-sol-artifact-1",
  "contractName": "Exchange",
  "sourceName": "contracts/Exchange.sol",
  "abi": [
    {
      "inputs": [
        {
          "internalType": "address",
          "name": "_token",
          "type": "address"
        }
      ],
      "stateMutability": "nonpayable",
      "type": "constructor"
    },
    {
      "anonymous": false,
      "inputs": [
        {
          "indexed": true,
          "internalType": "address",
          "name": "owner",
          "type": "address"
        },
        {
          "indexed": true,
          "internalType": "address",
          "name": "spender",
          "type": "address"
        },
        {
          "indexed": false,
          "internalType": "uint256",
          "name": "value",
          "type": "uint256"
        }
      ],
      "name": "Approval",
      "type": "event"
    },
    {
      "anonymous": false,
      "inputs": [
        {
          "indexed": true,
          "internalType": "address",
          "name": "from",
          "type": "address"
        },
        {
          "indexed": true,
          "internalType": "address",
          "name": "to",
          "type": "address"
        },
        {
          "indexed": false,
          "internalType": "uint256",
          "name": "value",
          "type": "uint256"
        }
      ],
      "name": "Transfer",
      "type": "event"
    },
    {
      "inputs": [
        {
          "internalType": "uint256",
          "name": "_tokenAmount",
          "type": "uint256"
        }
      ],
      "name": "addLiquidity",
      "outputs": [
        {
          "internalType": "uint256",
          "name": "",
          "type": "uint256"
        }
      ],
      "stateMutability": "payable",
      "type": "function"
    },
    {
      "inputs": [
        {
          "internalType": "address",
          "name": "owner",
          "type": "address"
        },
        {
          "internalType": "address",
          "name": "spender",
          "type": "address"
        }
      ],
      "name": "allowance",
      "outputs": [
        {
          "internalType": "uint256",
          "name": "",
          "type": "uint256"
        }
      ],
      "stateMutability": "view",
      "type": "function"
    },
    {
      "inputs": [
        {
          "internalType": "address",
          "name": "spender",
          "type": "address"
        },
        {
          "internalType": "uint256",
          "name": "amount",
          "type": "uint256"
        }
      ],
      "name": "approve",
      "outputs": [
        {
          "internalType": "bool",
          "name": "",
          "type": "bool"
        }
      ],
      "stateMutability": "nonpayable",
      "type": "function"
    },
    {
      "inputs": [
        {
          "internalType": "address",
          "name": "account",
          "type": "address"
        }
      ],
      "name": "balanceOf",
      "outputs": [
        {
          "internalType": "uint256",
          "name": "",
          "type": "uint256"
        }
      ],
      "stateMutability": "view",
      "type": "function"
    },
    {
      "inputs": [],
      "name": "decimals",
      "outputs": [
        {
          "internalType": "uint8",
          "name": "",
          "type": "uint8"
        }
      ],
      "stateMutability": "view",
      "type": "function"
    },
    {
      "inputs": [
        {
          "internalType": "address",
          "name": "spender",
          "type": "address"
        },
        {
          "internalType": "uint256",
          "name": "subtractedValue",
          "type": "uint256"
        }
      ],
      "name": "decreaseAllowance",
      "outputs": [
        {
          "internalType": "bool",
          "name": "",
          "type": "bool"
        }
      ],
      "stateMutability": "nonpayable",
      "type": "function"
    },
    {
      "inputs": [
        {
          "internalType": "uint256",
          "name": "_minTokens",
          "type": "uint256"
        },
        {
          "internalType": "address",
          "name": "recipient",
          "type": "address"
        }
      ],
      "name": "ethToToken",
      "outputs": [],
      "stateMutability": "payable",
      "type": "function"
    },
    {
      "inputs": [
        {
          "internalType": "uint256",
          "name": "_minTokens",
          "type": "uint256"
        }
      ],
      "name": "ethToTokenSwap",
      "outputs": [],
      "stateMutability": "payable",
      "type": "function"
    },
    {
      "inputs": [],
      "name": "factoryAddress",
      "outputs": [
        {
          "internalType": "address",
          "name": "",
          "type": "address"
        }
      ],
      "stateMutability": "view",
      "type": "function"
    },
    {
      "inputs": [
        {
          "internalType": "uint256",
          "name": "_tokenSold",
          "type": "uint256"
        }
      ],
      "name": "getEthAmount",
      "outputs": [
        {
          "internalType": "uint256",
          "name": "",
          "type": "uint256"
        }
      ],
      "stateMutability": "view",
      "type": "function"
    },
    {
      "inputs": [],
      "name": "getEthPrice",
      "outputs": [
        {
          "internalType": "uint256",
          "name": "",
          "type": "uint256"
        }
      ],
      "stateMutability": "view",
      "type": "function"
    },
    {
      "inputs": [
        {
          "internalType": "uint256",
          "name": "inputReserve",
          "type": "uint256"
        },
        {
          "internalType": "uint256",
          "name": "outputReserve",
          "type": "uint256"
        }
      ],
      "name": "getPrice",
      "outputs": [
        {
          "internalType": "uint256",
          "name": "",
          "type": "uint256"
        }
      ],
      "stateMutability": "pure",
      "type": "function"
    },
    {
      "inputs": [],
      "name": "getReserve",
      "outputs": [
        {
          "internalType": "uint256",
          "name": "",
          "type": "uint256"
        }
      ],
      "stateMutability": "view",
      "type": "function"
    },
    {
      "inputs": [
        {
          "internalType": "uint256",
          "name": "_ethSold",
          "type": "uint256"
        }
      ],
      "name": "getTokenAmount",
      "outputs": [
        {
          "internalType": "uint256",
          "name": "",
          "type": "uint256"
        }
      ],
      "stateMutability": "view",
      "type": "function"
    },
    {
      "inputs": [],
      "name": "getTokenPrice",
      "outputs": [
        {
          "internalType": "uint256",
          "name": "",
          "type": "uint256"
        }
      ],
      "stateMutability": "view",
      "type": "function"
    },
    {
      "inputs": [
        {
          "internalType": "address",
          "name": "spender",
          "type": "address"
        },
        {
          "internalType": "uint256",
          "name": "addedValue",
          "type": "uint256"
        }
      ],
      "name": "increaseAllowance",
      "outputs": [
        {
          "internalType": "bool",
          "name": "",
          "type": "bool"
        }
      ],
      "stateMutability": "nonpayable",
      "type": "function"
    },
    {
      "inputs": [],
      "name": "name",
      "outputs": [
        {
          "internalType": "string",
          "name": "",
          "type": "string"
        }
      ],
      "stateMutability": "view",
      "type": "function"
    },
    {
      "inputs": [
        {
          "internalType": "uint256",
          "name": "_amount",
          "type": "uint256"
        }
      ],
      "name": "removeLiquidity",
      "outputs": [
        {
          "internalType": "uint256",
          "name": "",
          "type": "uint256"
        },
        {
          "internalType": "uint256",
          "name": "",
          "type": "uint256"
        }
      ],
      "stateMutability": "nonpayable",
      "type": "function"
    },
    {
      "inputs": [],
      "name": "symbol",
      "outputs": [
        {
          "internalType": "string",
          "name": "",
          "type": "string"
        }
      ],
      "stateMutability": "view",
      "type": "function"
    },
    {
      "inputs": [],
      "name": "tokenAddress",
      "outputs": [
        {
          "internalType": "address",
          "name": "",
          "type": "address"
        }
      ],
      "stateMutability": "view",
      "type": "function"
    },
    {
      "inputs": [
        {
          "internalType": "uint256",
          "name": "_tokensSold",
          "type": "uint256"
        },
        {
          "internalType": "uint256",
          "name": "_minEth",
          "type": "uint256"
        }
      ],
      "name": "tokenToEthSwap",
      "outputs": [],
      "stateMutability": "nonpayable",
      "type": "function"
    },
    {
      "inputs": [
        {
          "internalType": "uint256",
          "name": "_tokensSold",
          "type": "uint256"
        },
        {
          "internalType": "uint256",
          "name": "_minTokensBought",
          "type": "uint256"
        },
        {
          "internalType": "address",
          "name": "_tokenAddress",
          "type": "address"
        }
      ],
      "name": "tokenToTokenSwap",
      "outputs": [],
      "stateMutability": "nonpayable",
      "type": "function"
    },
    {
      "inputs": [],
      "name": "totalSupply",
      "outputs": [
        {
          "internalType": "uint256",
          "name": "",
          "type": "uint256"
        }
      ],
      "stateMutability": "view",
      "type": "function"
    },
    {
      "inputs": [
        {
          "internalType": "address",
          "name": "to",
          "type": "address"
        },
        {
          "internalType": "uint256",
          "name": "amount",
          "type": "uint256"
        }
      ],
      "name": "transfer",
      "outputs": [
        {
          "internalType": "bool",
          "name": "",
          "type": "bool"
        }
      ],
      "stateMutability": "nonpayable",
      "type": "function"
    },
    {
      "inputs": [
        {
          "internalType": "address",
          "name": "from",
          "type": "address"
        },
        {
          "internalType": "address",
          "name": "to",
          "type": "address"
        },
        {
          "internalType": "uint256",
          "name": "amount",
          "type": "uint256"
        }
      ],
      "name": "transferFrom",
      "outputs": [
        {
          "internalType": "bool",
          "name": "",
          "type": "bool"
        }
      ],
      "stateMutability": "nonpayable",
      "type": "function"
    }
  ],
  "bytecode": "0x60806040523480156200001157600080fd5b506040516200320f3803806200320f83398181016040528101906200003791906200029a565b6040518060400160405280600481526020017f53776170000000000000000000000000000000000000000000000000000000008152506040518060400160405280600281526020017f53310000000000000000000000000000000000000000000000000000000000008152508160039080519060200190620000bb929190620001d3565b508060049080519060200190620000d4929190620001d3565b505050600073ffffffffffffffffffffffffffffffffffffffff168173ffffffffffffffffffffffffffffffffffffffff1614156200014a576040517f08c379a00000000000000000000000000000000000000000000000000000000081526004016200014190620002ed565b60405180910390fd5b80600560006101000a81548173ffffffffffffffffffffffffffffffffffffffff021916908373ffffffffffffffffffffffffffffffffffffffff16021790555033600660006101000a81548173ffffffffffffffffffffffffffffffffffffffff021916908373ffffffffffffffffffffffffffffffffffffffff16021790555050620003fc565b828054620001e19062000354565b90600052602060002090601f01602090048101928262000205576000855562000251565b82601f106200022057805160ff191683800117855562000251565b8280016001018555821562000251579182015b828111156200025057825182559160200191906001019062000233565b5b50905062000260919062000264565b5090565b5b808211156200027f57600081600090555060010162000265565b5090565b6000815190506200029481620003e2565b92915050565b600060208284031215620002ad57600080fd5b6000620002bd8482850162000283565b91505092915050565b6000620002d56015836200030f565b9150620002e282620003b9565b602082019050919050565b600060208201905081810360008301526200030881620002c6565b9050919050565b600082825260208201905092915050565b60006200032d8262000334565b9050919050565b600073ffffffffffffffffffffffffffffffffffffffff82169050919050565b600060028204905060018216806200036d57607f821691505b602082108114156200038457620003836200038a565b5b50919050565b7f4e487b7100000000000000000000000000000000000000000000000000000000600052602260045260246000fd5b7f696e76616c696420746f6b656e20616464726573730000000000000000000000600082015250565b620003ed8162000320565b8114620003f957600080fd5b50565b612e03806200040c6000396000f3fe6080604052600436106101665760003560e01c80638fc7a25d116100d1578063a9059cbb1161008a578063dd62ed3e11610064578063dd62ed3e1461059d578063e0486c8a146105da578063f7a7e32414610603578063f979dcd71461062c57610166565b8063a9059cbb14610507578063afa76c5c14610544578063c2507ac11461056057610166565b80638fc7a25d146103ce57806395d89b411461040b578063966dae0e146104365780639c8f9f23146104615780639d76ea581461049f578063a457c2d7146104ca57610166565b80634b94f50e116101235780634b94f50e146102a357806351c6590a146102ce57806359bf5d39146102fe5780635cf4ee911461032957806367c9b0171461036657806370a082311461039157610166565b806306fdde031461016b578063095ea7b31461019657806318160ddd146101d357806323b872dd146101fe578063313ce5671461023b5780633950935114610266575b600080fd5b34801561017757600080fd5b50610180610648565b60405161018d9190612403565b60405180910390f35b3480156101a257600080fd5b506101bd60048036038101906101b89190611f04565b6106da565b6040516101ca91906123e8565b60405180910390f35b3480156101df57600080fd5b506101e86106fd565b6040516101f59190612665565b60405180910390f35b34801561020a57600080fd5b5061022560048036038101906102209190611eb5565b610707565b60405161023291906123e8565b60405180910390f35b34801561024757600080fd5b50610250610736565b60405161025d91906126d2565b60405180910390f35b34801561027257600080fd5b5061028d60048036038101906102889190611f04565b61073f565b60405161029a91906123e8565b60405180910390f35b3480156102af57600080fd5b506102b8610776565b6040516102c59190612665565b60405180910390f35b6102e860048036038101906102e39190611f69565b61078e565b6040516102f59190612665565b60405180910390f35b34801561030a57600080fd5b506103136109da565b6040516103209190612665565b60405180910390f35b34801561033557600080fd5b50610350600480360381019061034b9190611ff7565b610a8c565b60405161035d9190612665565b60405180910390f35b34801561037257600080fd5b5061037b610afd565b6040516103889190612665565b60405180910390f35b34801561039d57600080fd5b506103b860048036038101906103b39190611e27565b610b15565b6040516103c59190612665565b60405180910390f35b3480156103da57600080fd5b506103f560048036038101906103f09190611f69565b610b5d565b6040516104029190612665565b60405180910390f35b34801561041757600080fd5b50610420610bc0565b60405161042d9190612403565b60405180910390f35b34801561044257600080fd5b5061044b610c52565b604051610458919061236d565b60405180910390f35b34801561046d57600080fd5b5061048860048036038101906104839190611f69565b610c78565b6040516104969291906126a9565b60405180910390f35b3480156104ab57600080fd5b506104b4610e17565b6040516104c1919061236d565b60405180910390f35b3480156104d657600080fd5b506104f160048036038101906104ec9190611f04565b610e3d565b6040516104fe91906123e8565b60405180910390f35b34801561051357600080fd5b5061052e60048036038101906105299190611f04565b610eb4565b60405161053b91906123e8565b60405180910390f35b61055e60048036038101906105599190611fbb565b610ed7565b005b34801561056c57600080fd5b5061058760048036038101906105829190611f69565b610ff6565b6040516105949190612665565b60405180910390f35b3480156105a957600080fd5b506105c460048036038101906105bf9190611e79565b611059565b6040516105d19190612665565b60405180910390f35b3480156105e657600080fd5b5061060160048036038101906105fc9190611ff7565b6110e0565b005b34801561060f57600080fd5b5061062a60048036038101906106259190612033565b61123d565b005b61064660048036038101906106419190611f69565b6114d9565b005b606060038054610657906128a6565b80601f0160208091040260200160405190810160405280929190818152602001828054610683906128a6565b80156106d05780601f106106a5576101008083540402835291602001916106d0565b820191906000526020600020905b8154815290600101906020018083116106b357829003601f168201915b5050505050905090565b6000806106e56114e6565b90506106f28185856114ee565b600191505092915050565b6000600254905090565b6000806107126114e6565b905061071f8582856116b9565b61072a858585611745565b60019150509392505050565b60006012905090565b60008061074a6114e6565b905061076b81858561075c8589611059565b6107669190612709565b6114ee565b600191505092915050565b6000610789476107846109da565b610a8c565b905090565b6000806107996109da565b141561086f576000600560009054906101000a900473ffffffffffffffffffffffffffffffffffffffff1690508073ffffffffffffffffffffffffffffffffffffffff166323b872dd3330866040518463ffffffff1660e01b815260040161080393929190612388565b602060405180830381600087803b15801561081d57600080fd5b505af1158015610831573d6000803e3d6000fd5b505050506040513d601f19601f820116820180604052508101906108559190611f40565b50600047905061086533826119c6565b80925050506109d5565b6000344761087d91906127ea565b905060006108896109da565b9050600082823461089a9190612790565b6108a4919061275f565b9050808510156108e9576040517f08c379a00000000000000000000000000000000000000000000000000000000081526004016108e0906125c5565b60405180910390fd5b6000600560009054906101000a900473ffffffffffffffffffffffffffffffffffffffff1690508073ffffffffffffffffffffffffffffffffffffffff166323b872dd3330856040518463ffffffff1660e01b815260040161094d93929190612388565b602060405180830381600087803b15801561096757600080fd5b505af115801561097b573d6000803e3d6000fd5b505050506040513d601f19601f8201168201806040525081019061099f9190611f40565b50600084346109ac6106fd565b6109b69190612790565b6109c0919061275f565b90506109cc33826119c6565b80955050505050505b919050565b6000600560009054906101000a900473ffffffffffffffffffffffffffffffffffffffff1673ffffffffffffffffffffffffffffffffffffffff166370a08231306040518263ffffffff1660e01b8152600401610a37919061236d565b60206040518083038186803b158015610a4f57600080fd5b505afa158015610a63573d6000803e3d6000fd5b505050506040513d601f19601f82011682018060405250810190610a879190611f92565b905090565b60008083118015610a9d5750600082115b610adc576040517f08c379a0000000000000000000000000000000000000000000000000000000008152600401610ad390612605565b60405180910390fd5b8161271084610aeb9190612790565b610af5919061275f565b905092915050565b6000610b10610b0a6109da565b47610a8c565b905090565b60008060008373ffffffffffffffffffffffffffffffffffffffff1673ffffffffffffffffffffffffffffffffffffffff168152602001908152602001600020549050919050565b6000808211610ba1576040517f08c379a0000000000000000000000000000000000000000000000000000000008152600401610b9890612525565b60405180910390fd5b6000610bab6109da565b9050610bb8838247611b26565b915050919050565b606060048054610bcf906128a6565b80601f0160208091040260200160405190810160405280929190818152602001828054610bfb906128a6565b8015610c485780601f10610c1d57610100808354040283529160200191610c48565b820191906000526020600020905b815481529060010190602001808311610c2b57829003601f168201915b5050505050905090565b600660009054906101000a900473ffffffffffffffffffffffffffffffffffffffff1681565b60008060008311610cbe576040517f08c379a0000000000000000000000000000000000000000000000000000000008152600401610cb5906124c5565b60405180910390fd5b6000610cc86106fd565b8447610cd49190612790565b610cde919061275f565b90506000610cea6106fd565b85610cf36109da565b610cfd9190612790565b610d07919061275f565b9050610d133386611bdd565b3373ffffffffffffffffffffffffffffffffffffffff166108fc839081150290604051600060405180830381858888f19350505050158015610d59573d6000803e3d6000fd5b50600560009054906101000a900473ffffffffffffffffffffffffffffffffffffffff1673ffffffffffffffffffffffffffffffffffffffff1663a9059cbb33836040518363ffffffff1660e01b8152600401610db79291906123bf565b602060405180830381600087803b158015610dd157600080fd5b505af1158015610de5573d6000803e3d6000fd5b505050506040513d601f19601f82011682018060405250810190610e099190611f40565b508181935093505050915091565b600560009054906101000a900473ffffffffffffffffffffffffffffffffffffffff1681565b600080610e486114e6565b90506000610e568286611059565b905083811015610e9b576040517f08c379a0000000000000000000000000000000000000000000000000000000008152600401610e9290612625565b60405180910390fd5b610ea882868684036114ee565b60019250505092915050565b600080610ebf6114e6565b9050610ecc818585611745565b600191505092915050565b6000610ee16109da565b90506000610efb343447610ef591906127ea565b84611b26565b905083811015610f40576040517f08c379a0000000000000000000000000000000000000000000000000000000008152600401610f37906124e5565b60405180910390fd5b600560009054906101000a900473ffffffffffffffffffffffffffffffffffffffff1673ffffffffffffffffffffffffffffffffffffffff1663a9059cbb84836040518363ffffffff1660e01b8152600401610f9d9291906123bf565b602060405180830381600087803b158015610fb757600080fd5b505af1158015610fcb573d6000803e3d6000fd5b505050506040513d601f19601f82011682018060405250810190610fef9190611f40565b5050505050565b600080821161103a576040517f08c379a000000000000000000000000000000000000000000000000000000000815260040161103190612505565b60405180910390fd5b60006110446109da565b9050611051834783611b26565b915050919050565b6000600160008473ffffffffffffffffffffffffffffffffffffffff1673ffffffffffffffffffffffffffffffffffffffff16815260200190815260200160002060008373ffffffffffffffffffffffffffffffffffffffff1673ffffffffffffffffffffffffffffffffffffffff16815260200190815260200160002054905092915050565b60006110ea6109da565b905060006110f9848347611b26565b90508281101561113e576040517f08c379a000000000000000000000000000000000000000000000000000000000815260040161113590612585565b60405180910390fd5b600560009054906101000a900473ffffffffffffffffffffffffffffffffffffffff1673ffffffffffffffffffffffffffffffffffffffff166323b872dd3330876040518463ffffffff1660e01b815260040161119d93929190612388565b602060405180830381600087803b1580156111b757600080fd5b505af11580156111cb573d6000803e3d6000fd5b505050506040513d601f19601f820116820180604052508101906111ef9190611f40565b503373ffffffffffffffffffffffffffffffffffffffff166108fc829081150290604051600060405180830381858888f19350505050158015611236573d6000803e3d6000fd5b5050505050565b6000600660009054906101000a900473ffffffffffffffffffffffffffffffffffffffff1673ffffffffffffffffffffffffffffffffffffffff166306f2bf62836040518263ffffffff1660e01b815260040161129a919061236d565b602060405180830381600087803b1580156112b457600080fd5b505af11580156112c8573d6000803e3d6000fd5b505050506040513d601f19601f820116820180604052508101906112ec9190611e50565b90503073ffffffffffffffffffffffffffffffffffffffff168173ffffffffffffffffffffffffffffffffffffffff16141580156113575750600073ffffffffffffffffffffffffffffffffffffffff168173ffffffffffffffffffffffffffffffffffffffff1614155b611396576040517f08c379a000000000000000000000000000000000000000000000000000000000815260040161138d90612545565b60405180910390fd5b60006113a06109da565b905060006113af868347611b26565b9050600560009054906101000a900473ffffffffffffffffffffffffffffffffffffffff1673ffffffffffffffffffffffffffffffffffffffff166323b872dd3330896040518463ffffffff1660e01b815260040161141093929190612388565b602060405180830381600087803b15801561142a57600080fd5b505af115801561143e573d6000803e3d6000fd5b505050506040513d601f19601f820116820180604052508101906114629190611f40565b508273ffffffffffffffffffffffffffffffffffffffff1663afa76c5c8287336040518463ffffffff1660e01b815260040161149f929190612680565b6000604051808303818588803b1580156114b857600080fd5b505af11580156114cc573d6000803e3d6000fd5b5050505050505050505050565b6114e38133610ed7565b50565b600033905090565b600073ffffffffffffffffffffffffffffffffffffffff168373ffffffffffffffffffffffffffffffffffffffff16141561155e576040517f08c379a0000000000000000000000000000000000000000000000000000000008152600401611555906125e5565b60405180910390fd5b600073ffffffffffffffffffffffffffffffffffffffff168273ffffffffffffffffffffffffffffffffffffffff1614156115ce576040517f08c379a00000000000000000000000000000000000000000000000000000000081526004016115c590612465565b60405180910390fd5b80600160008573ffffffffffffffffffffffffffffffffffffffff1673ffffffffffffffffffffffffffffffffffffffff16815260200190815260200160002060008473ffffffffffffffffffffffffffffffffffffffff1673ffffffffffffffffffffffffffffffffffffffff168152602001908152602001600020819055508173ffffffffffffffffffffffffffffffffffffffff168373ffffffffffffffffffffffffffffffffffffffff167f8c5be1e5ebec7d5bd14f71427d1e84f3dd0314c0f7b2291e5b200ac8c7c3b925836040516116ac9190612665565b60405180910390a3505050565b60006116c58484611059565b90507fffffffffffffffffffffffffffffffffffffffffffffffffffffffffffffffff811461173f5781811015611731576040517f08c379a000000000000000000000000000000000000000000000000000000000815260040161172890612485565b60405180910390fd5b61173e84848484036114ee565b5b50505050565b600073ffffffffffffffffffffffffffffffffffffffff168373ffffffffffffffffffffffffffffffffffffffff1614156117b5576040517f08c379a00000000000000000000000000000000000000000000000000000000081526004016117ac906125a5565b60405180910390fd5b600073ffffffffffffffffffffffffffffffffffffffff168273ffffffffffffffffffffffffffffffffffffffff161415611825576040517f08c379a000000000000000000000000000000000000000000000000000000000815260040161181c90612425565b60405180910390fd5b611830838383611db4565b60008060008573ffffffffffffffffffffffffffffffffffffffff1673ffffffffffffffffffffffffffffffffffffffff168152602001908152602001600020549050818110156118b6576040517f08c379a00000000000000000000000000000000000000000000000000000000081526004016118ad906124a5565b60405180910390fd5b8181036000808673ffffffffffffffffffffffffffffffffffffffff1673ffffffffffffffffffffffffffffffffffffffff16815260200190815260200160002081905550816000808573ffffffffffffffffffffffffffffffffffffffff1673ffffffffffffffffffffffffffffffffffffffff16815260200190815260200160002060008282546119499190612709565b925050819055508273ffffffffffffffffffffffffffffffffffffffff168473ffffffffffffffffffffffffffffffffffffffff167fddf252ad1be2c89b69c2b068fc378daa952ba7f163c4a11628f55a4df523b3ef846040516119ad9190612665565b60405180910390a36119c0848484611db9565b50505050565b600073ffffffffffffffffffffffffffffffffffffffff168273ffffffffffffffffffffffffffffffffffffffff161415611a36576040517f08c379a0000000000000000000000000000000000000000000000000000000008152600401611a2d90612645565b60405180910390fd5b611a4260008383611db4565b8060026000828254611a549190612709565b92505081905550806000808473ffffffffffffffffffffffffffffffffffffffff1673ffffffffffffffffffffffffffffffffffffffff1681526020019081526020016000206000828254611aa99190612709565b925050819055508173ffffffffffffffffffffffffffffffffffffffff16600073ffffffffffffffffffffffffffffffffffffffff167fddf252ad1be2c89b69c2b068fc378daa952ba7f163c4a11628f55a4df523b3ef83604051611b0e9190612665565b60405180910390a3611b2260008383611db9565b5050565b60008083118015611b375750600082115b611b76576040517f08c379a0000000000000000000000000000000000000000000000000000000008152600401611b6d90612605565b60405180910390fd5b6000600190506000816064611b8b91906127ea565b86611b969190612790565b905060008482611ba69190612790565b9050600082606488611bb89190612790565b611bc29190612709565b90508082611bd0919061275f565b9450505050509392505050565b600073ffffffffffffffffffffffffffffffffffffffff168273ffffffffffffffffffffffffffffffffffffffff161415611c4d576040517f08c379a0000000000000000000000000000000000000000000000000000000008152600401611c4490612565565b60405180910390fd5b611c5982600083611db4565b60008060008473ffffffffffffffffffffffffffffffffffffffff1673ffffffffffffffffffffffffffffffffffffffff16815260200190815260200160002054905081811015611cdf576040517f08c379a0000000000000000000000000000000000000000000000000000000008152600401611cd690612445565b60405180910390fd5b8181036000808573ffffffffffffffffffffffffffffffffffffffff1673ffffffffffffffffffffffffffffffffffffffff168152602001908152602001600020819055508160026000828254611d3691906127ea565b92505081905550600073ffffffffffffffffffffffffffffffffffffffff168373ffffffffffffffffffffffffffffffffffffffff167fddf252ad1be2c89b69c2b068fc378daa952ba7f163c4a11628f55a4df523b3ef84604051611d9b9190612665565b60405180910390a3611daf83600084611db9565b505050565b505050565b505050565b600081359050611dcd81612d88565b92915050565b600081519050611de281612d88565b92915050565b600081519050611df781612d9f565b92915050565b600081359050611e0c81612db6565b92915050565b600081519050611e2181612db6565b92915050565b600060208284031215611e3957600080fd5b6000611e4784828501611dbe565b91505092915050565b600060208284031215611e6257600080fd5b6000611e7084828501611dd3565b91505092915050565b60008060408385031215611e8c57600080fd5b6000611e9a85828601611dbe565b9250506020611eab85828601611dbe565b9150509250929050565b600080600060608486031215611eca57600080fd5b6000611ed886828701611dbe565b9350506020611ee986828701611dbe565b9250506040611efa86828701611dfd565b9150509250925092565b60008060408385031215611f1757600080fd5b6000611f2585828601611dbe565b9250506020611f3685828601611dfd565b9150509250929050565b600060208284031215611f5257600080fd5b6000611f6084828501611de8565b91505092915050565b600060208284031215611f7b57600080fd5b6000611f8984828501611dfd565b91505092915050565b600060208284031215611fa457600080fd5b6000611fb284828501611e12565b91505092915050565b60008060408385031215611fce57600080fd5b6000611fdc85828601611dfd565b9250506020611fed85828601611dbe565b9150509250929050565b6000806040838503121561200a57600080fd5b600061201885828601611dfd565b925050602061202985828601611dfd565b9150509250929050565b60008060006060848603121561204857600080fd5b600061205686828701611dfd565b935050602061206786828701611dfd565b925050604061207886828701611dbe565b9150509250925092565b61208b8161281e565b82525050565b61209a81612830565b82525050565b60006120ab826126ed565b6120b581856126f8565b93506120c5818560208601612873565b6120ce81612965565b840191505092915050565b60006120e66023836126f8565b91506120f182612976565b604082019050919050565b60006121096022836126f8565b9150612114826129c5565b604082019050919050565b600061212c6022836126f8565b915061213782612a14565b604082019050919050565b600061214f601d836126f8565b915061215a82612a63565b602082019050919050565b60006121726026836126f8565b915061217d82612a8c565b604082019050919050565b6000612195600e836126f8565b91506121a082612adb565b602082019050919050565b60006121b8601a836126f8565b91506121c382612b04565b602082019050919050565b60006121db6014836126f8565b91506121e682612b2d565b602082019050919050565b60006121fe6016836126f8565b915061220982612b56565b602082019050919050565b60006122216018836126f8565b915061222c82612b7f565b602082019050919050565b60006122446021836126f8565b915061224f82612ba8565b604082019050919050565b6000612267601a836126f8565b915061227282612bf7565b602082019050919050565b600061228a6025836126f8565b915061229582612c20565b604082019050919050565b60006122ad6019836126f8565b91506122b882612c6f565b602082019050919050565b60006122d06024836126f8565b91506122db82612c98565b604082019050919050565b60006122f36010836126f8565b91506122fe82612ce7565b602082019050919050565b60006123166025836126f8565b915061232182612d10565b604082019050919050565b6000612339601f836126f8565b915061234482612d5f565b602082019050919050565b6123588161285c565b82525050565b61236781612866565b82525050565b60006020820190506123826000830184612082565b92915050565b600060608201905061239d6000830186612082565b6123aa6020830185612082565b6123b7604083018461234f565b949350505050565b60006040820190506123d46000830185612082565b6123e1602083018461234f565b9392505050565b60006020820190506123fd6000830184612091565b92915050565b6000602082019050818103600083015261241d81846120a0565b905092915050565b6000602082019050818103600083015261243e816120d9565b9050919050565b6000602082019050818103600083015261245e816120fc565b9050919050565b6000602082019050818103600083015261247e8161211f565b9050919050565b6000602082019050818103600083015261249e81612142565b9050919050565b600060208201905081810360008301526124be81612165565b9050919050565b600060208201905081810360008301526124de81612188565b9050919050565b600060208201905081810360008301526124fe816121ab565b9050919050565b6000602082019050818103600083015261251e816121ce565b9050919050565b6000602082019050818103600083015261253e816121f1565b9050919050565b6000602082019050818103600083015261255e81612214565b9050919050565b6000602082019050818103600083015261257e81612237565b9050919050565b6000602082019050818103600083015261259e8161225a565b9050919050565b600060208201905081810360008301526125be8161227d565b9050919050565b600060208201905081810360008301526125de816122a0565b9050919050565b600060208201905081810360008301526125fe816122c3565b9050919050565b6000602082019050818103600083015261261e816122e6565b9050919050565b6000602082019050818103600083015261263e81612309565b9050919050565b6000602082019050818103600083015261265e8161232c565b9050919050565b600060208201905061267a600083018461234f565b92915050565b6000604082019050612695600083018561234f565b6126a26020830184612082565b9392505050565b60006040820190506126be600083018561234f565b6126cb602083018461234f565b9392505050565b60006020820190506126e7600083018461235e565b92915050565b600081519050919050565b600082825260208201905092915050565b60006127148261285c565b915061271f8361285c565b9250827fffffffffffffffffffffffffffffffffffffffffffffffffffffffffffffffff03821115612754576127536128d8565b5b828201905092915050565b600061276a8261285c565b91506127758361285c565b92508261278557612784612907565b5b828204905092915050565b600061279b8261285c565b91506127a68361285c565b9250817fffffffffffffffffffffffffffffffffffffffffffffffffffffffffffffffff04831182151516156127df576127de6128d8565b5b828202905092915050565b60006127f58261285c565b91506128008361285c565b925082821015612813576128126128d8565b5b828203905092915050565b60006128298261283c565b9050919050565b60008115159050919050565b600073ffffffffffffffffffffffffffffffffffffffff82169050919050565b6000819050919050565b600060ff82169050919050565b60005b83811015612891578082015181840152602081019050612876565b838111156128a0576000848401525b50505050565b600060028204905060018216806128be57607f821691505b602082108114156128d2576128d1612936565b5b50919050565b7f4e487b7100000000000000000000000000000000000000000000000000000000600052601160045260246000fd5b7f4e487b7100000000000000000000000000000000000000000000000000000000600052601260045260246000fd5b7f4e487b7100000000000000000000000000000000000000000000000000000000600052602260045260246000fd5b6000601f19601f8301169050919050565b7f45524332303a207472616e7366657220746f20746865207a65726f206164647260008201527f6573730000000000000000000000000000000000000000000000000000000000602082015250565b7f45524332303a206275726e20616d6f756e7420657863656564732062616c616e60008201527f6365000000000000000000000000000000000000000000000000000000000000602082015250565b7f45524332303a20617070726f766520746f20746865207a65726f20616464726560008201527f7373000000000000000000000000000000000000000000000000000000000000602082015250565b7f45524332303a20696e73756666696369656e7420616c6c6f77616e6365000000600082015250565b7f45524332303a207472616e7366657220616d6f756e742065786365656473206260008201527f616c616e63650000000000000000000000000000000000000000000000000000602082015250565b7f696e76616c696420616d6f756e74000000000000000000000000000000000000600082015250565b7f496e73756666696369656e74206f757470757420616d6f756e74000000000000600082015250565b7f657468536f6c6420697320746f6f20736d616c6c000000000000000000000000600082015250565b7f746f6b656e536f6c6420697320746f6f20736d616c6c00000000000000000000600082015250565b7f696e76616c69642065786368616e676520616464726573730000000000000000600082015250565b7f45524332303a206275726e2066726f6d20746865207a65726f2061646472657360008201527f7300000000000000000000000000000000000000000000000000000000000000602082015250565b7f696e73756666696369656e74206f757470757420616d6f756e74000000000000600082015250565b7f45524332303a207472616e736665722066726f6d20746865207a65726f20616460008201527f6472657373000000000000000000000000000000000000000000000000000000602082015250565b7f696e73756666696369656e7420746f6b656e20616d6f756e7400000000000000600082015250565b7f45524332303a20617070726f76652066726f6d20746865207a65726f2061646460008201527f7265737300000000000000000000000000000000000000000000000000000000602082015250565b7f696e76616c696420726573657276657300000000000000000000000000000000600082015250565b7f45524332303a2064656372656173656420616c6c6f77616e63652062656c6f7760008201527f207a65726f000000000000000000000000000000000000000000000000000000602082015250565b7f45524332303a206d696e7420746f20746865207a65726f206164647265737300600082015250565b612d918161281e565b8114612d9c57600080fd5b50565b612da881612830565b8114612db357600080fd5b50565b612dbf8161285c565b8114612dca57600080fd5b5056fea26469706673582212200c6220aa95e20bdd798dbbe8c672169f58fa4220bbaa41f7eef766869c0893e064736f6c63430008030033",
  "linkReferences": {},
  "deployedLinkReferences": {}
}